:100000000C9456000C9460000C9460000C946000FA
:100010000C9460000C9460000C9460000C946000E0
:100020000C9460000C9460000C9460000C946000D0
:100030000C9460000C9460000C9460000C946000C0
:100040000C9460000C9460000C9460000C946000B0
:100050000C9460000C9460000C9460000C946000A0
:100060000C9460000C9460000C9460000C94600090
:100070000C9460000C9460000C9460000C94600080
:100080000C9460000C9460000C9460000C94600070
:100090000C9460000C9460000C9460000C94600060
:1000A0000C9460000C9460000C94600011241FBE3E
:1000B000CFEFCDBFDFE2DEBF0E9462000C94A6004E
:1000C0000C9400008FEF80930006809340060E94FE
:1000D0008D007894E0E0F8E040E054E0A0E0B6E085
:1000E00028E080E890E042A753A73FE76AE176E086
:1000F000315060407040E1F700C0000014962C932E
:10010000149782A793A73FE764E87EE131506040EF
:100110007040E1F700C00000E6CFE0E0F8E01082B8
:1001200081818360818385E5848310A211A280E0B0
:1001300094E086A397A310A611A612A613A614A650
:1001400015A616A617A685E080830895F894FFCF1C
:00000001FF
